:100000000C9415010C943D010C943D010C943D01A0
:100010000C943D010C943D010C943D010C943D0168
:100020000C943D010C943D010C943D010C943D0158
:100030000C943D010C943D010C943D010C943D0148
:100040000C94AA050C943D010C9416060C94F00532
:100050000C943D010C943D010C943D010C943D0128
:100060000C943D010C943D010C9400000C94000094
:100070000C9400000C940000084AD73B3BCE016E64
:1000800084BCBFFDC12F3D6C74319ABD56833DDAEF
:100090003D00C77F11BED9E4BB4C3E916BAAAABEFE
:1000A000000000803F072C7AA5BA6CC590DA3B931C
:1000B00065FC8BBC53F810FD3C5692834DBD879D6B
:1000C0003AB63DCBC9BF5BBE73DA0FC93F05A84C3A
:1000D000CDB2D44EB93836A9020C50B991868808F1
:1000E0003CA6AAAA2ABE000000803F004E414E490D
:1000F0004E495459494E46CDCCCC3D0AD7233C17E6
:10010000B7D13877CC2B329595E6241FB14F0A0032
:100110000020410000C84200401C4620BCBE4CCA22
:100120001B0E5AAEC59D7453656E64205468657489
:10013000612052686F206C696E65732028652E6798
:100140002E20302E31323320302E34353629206F98
:1001500072205247422028652E672E203235352CDA
:100160003235352C323535290053414E445F5441E8
:10017000424C455F524541445900434C454152452C
:100180004400524553554D454400434C454152456A
:100190004400524553554D45440050415553454444
:1001A000004F4B005247425F4F4B00434C4541527A
:1001B000454400524553554D454400504155534523
:1001C000440000000000240027002A002D00000049
:1001D0000000250028002B002E0004040404040461
:1001E00004040202020202020303030303030505DF
:1001F00005050505050301020408102040800102E1
:100200000408102001020408102002080104104014
:100210002040000000085002010000030407000015
:100220000000000000000000070F11241FBECFEFE8
:10023000D8E0DEBFCDBF21E0A0E3B1E001C01D9258
:10024000AD3EB207E1F711E0A0E0B1E0E8E2F0E393
:1002500002C005900D92A033B107D9F711E0C5E1B6
:10026000D1E004C02197FE010E94F915C431D107E5
:10027000C9F70E9448060C9412180C94000090E0F4
:10028000FC01EE5EFD4F2491FC01EA50FE4F3491DB
:1002900086529E4FFC018491882361F12223C9F08C
:1002A00021502B30B0F4E22FF0E0E75AFE4F0C94CF
:1002B000F9157F01830164017B01690169018601F0
:1002C0008C01900196019A01909180009F77909304
:1002D0008000E82FF0E0EE0FFF1FE253FE4FA591E4
:1002E000B4918FB7F894EC91611128C030953E23FA
:1002F0003C938FBF0895909180009F7DE8CF94B587
:100300009F7794BDE6CF94B59F7DFBCF9091B000D1
:100310009F779093B000DDCF9091B0009F7DF9CF93
:10032000909190009F7790939000D3CF9091900000
:100330009F7DF9CF90919000977FF5CF3E2BD8CF3E
:10034000CF93DF93282F30E0F901EA50FE4F44911C
:1003500026523E4FF9012491843019F483E08093B2
:10036000A0002223D9F0822F90E0880F991FFC0172
:10037000EE53FE4FA591B491FC01E253FE4FC5919F
:10038000D491623071F49FB7F8942C91842F8095AA
:1003900082238C93E8814E2B48839FBFDF91CF91BE
:1003A00008958FB7F894EC914E2B4C938FBFF6CFF6
:1003B0001F93CF93DF93182FEB0161E00E94A00100
:1003C000209739F460E0812FDF91CF911F910C9439
:1003D0003F01CF3FD10511F461E0F5CFE12FF0E00F
:1003E000EE5EFD4FE491E73009F447C0B8F4E23027
:1003F000A9F130F4E13051F1C038D1056CF7E2CF0A
:10040000E33089F1E430C1F780918000806280930D
:100410008000D0938B00C0938A001CC0EA30E9F1C1
:1004200070F4E83091F1E93039F7809190008068FC
:1004300080939000D0939900C09398000BC0EB304C
:10044000B1F1E035C9F6C093A10004C084B580685D
:1004500084BDC7BDDF91CF911F91089584B580629F
:1004600084BDC8BDF7CF80918000806880938000F4
:10047000D0938900C0938800EDCF8091B000806850
:100480008093B000C093B300E5CF8091B00080624C
:100490008093B000C093B400DDCF80919000806263
:1004A00080939000D0939B00C0939A00D3CF80910B
:1004B0009000886080939000D0939F00C0939E002E
:1004C000C9CF3FB7F8948091420190914301A09128
:1004D0004401B091450126B5A89B05C02F3F19F0F6
:1004E0000196A11DB11D3FBFBA2FA92F982F8827B4
:1004F000BC01CD01620F711D811D911D660F771F1B
:10050000881F991F0895AF92BF92CF92DF92EF920A
:10051000FF920F931F93CF93DF936C017B018B01AD
:10052000040F151FEB015E01AE18BF08C017D107FD
:1005300059F06991D601ED91FC910190F081E02D87
:10054000C6010995892B79F7C501DF91CF911F91DC
:100550000F91FF90EF90DF90CF90BF90AF900895F4
:10056000FC01538D448D252F30E0842F90E0821BB9
:10057000930B541710F0CF96089501970895FC013E
:10058000918D828D981761F0A28DAE0FBF2FB11D96
:100590005D968C91928D9F5F9F73928F90E00895EE
:1005A0008FEF9FEF08952FB7F894809146019091B7
:1005B0004701A0914801B09149012FBF809352019A
:1005C00090935301A0935401B09355018AE491E0B4
:1005D0000E94BF0297FF26C02FB7F8948091460172
:1005E00090914701A0914801B09149012FBF4091DE
:1005F0005201509153016091540170915501841B37
:10060000950BA60BB70B40914E0150914F01609195
:1006100050017091510184179507A607B707B0F2F2
:100620008FEF9FEF0895FC01918D828D981731F027
:10063000828DE80FF11D858D90E008958FEF9FEF7B
:100640000895FC01918D228D892F90E0805C9F4F51
:10065000821B91098F73992708958AE491E00E9483
:10066000210321E0892B09F420E0822F089580E006
:1006700090E0892B29F00E942D0381110C94000039
:100680000895FC01A48DA80FB92FB11DA35ABF4F27
:100690002C91848D90E001968F739927848FA68981
:1006A000B7892C93A089B1898C91837080648C93D5
:1006B000938D848D981306C00288F389E02D808184
:1006C0008F7D80830895EF92FF920F931F93CF93B6
:1006D000DF93EC0181E0888F9B8D8C8D98131AC07D
:1006E000E889F989808185FF15C09FB7F894EE8964
:1006F000FF896083E889F9898081837080648083C1
:100700009FBF81E090E0DF91CF911F910F91FF900B
:10071000EF900895F62E0B8D10E00F5F1F4F0F73B3
:100720001127E02E8C8D8E110CC00FB607FCFACF6E
:10073000E889F989808185FFF5CFCE010E944103C8
:10074000F1CFEB8DEC0FFD2FF11DE35AFF4FF0823F
:100750009FB7F8940B8FEA89FB8980818062CFCFA5
:100760000F931F93CF93DF938C01D0E0C0E0F8018B
:10077000EC0FFD1F6491662341F08AE491E00E9432
:100780006303892B11F02196F2CF42E050E068E13B
:1007900071E08AE491E00E9483028C0F9D1FDF913B
:1007A000CF911F910F910895CF93DF93EC01888D26
:1007B0008823B9F0AA89BB89E889F9898C9185FDDC
:1007C00003C0808186FD0DC00FB607FCF7CF8C916A
:1007D00085FFF2CF808185FFEDCFCE010E944103DE
:1007E000E9CFDF91CF910895FC018081918100973D
:1007F00011F00C949B160895CF93DF93FC01248194
:100800003581232B79F0C081D181062E000C770B26
:10081000CE010E94F217009729F08C1B9D0BDF91EF
:10082000CF9108958FEF9FEFFACFAF92BF92CF9203
:10083000DF92EF92FF920F931F93CF93DF93DC0130
:10084000CD90DC901197C114D10439F01496CD915C
:10085000DC918C017601209761F4DF91CF911F919B
:100860000F91FF90EF90DF90CF90BF90AF900895E1
:1008700075015701BFEFAB1ABB0AF7018081082E43
:10088000000C990B0E94C410892B91F72197CC0D75
:10089000DD1D8881082E000C990B0E94C410892B45
:1008A00029F0CE15DF0510F02197F3CFAE014F5F91
:1008B0005F4F4E195F09D80115965C934E931497BC
:1008C000CE14DF0420F4B701C6010E94E917D80155
:1008D000ED91FC91119714968D919C91E80FF91F61
:1008E0001082BBCFEF92FF920F931F93CF93DF93B2
:1008F0008617970769F1FC0124813581FB0144814A
:10090000558124173507E1F4232B11F1FC010081F7
:100910001181FB01C081D181F80181918F01882370
:10092000B9F0082E000C990B0E94E1177C01899107
:10093000082E000C990B0E94E117E816F90661F3E6
:1009400080E0DF91CF911F910F91FF90EF9008957C
:1009500081E0F7CF0F931F93CF93DF93EC01888152
:100960009981009759F02A813B812617370730F08B
:1009700081E0DF91CF911F910F9108958B016F5FFF
:100980007F4F0E942417009759F0998388831B8317
:100990000A832C813D81232B59F7FC011082E8CF7B
:1009A00080E0E7CFEF92FF920F931F93CF93DF93F7
:1009B000EC017B018A01BA010E94AA0428813981D5
:1009C000811114C02115310519F0C9010E949B162F
:1009D000198218821D821C821B821A82CE01DF912D
:1009E000CF911F910F91FF90EF9008951D830C837D
:1009F000B701C9010E94FD17F1CFFC0111821082DD
:100A00001382128215821482FB0101900020E9F703
:100A10003197AF01461B570B0C94D204EF92FF9213
:100A20000F931F93CF93DF9300D0CDB7DEB78C0128
:100A30006AE171E00E94FD040E94D30297FD21C08B
:100A40008A309105F1F089831A82F801E480F580FB
:100A5000FFEFEF1AFF0AB701C8010E94AA0488231A
:100A600059F3F8012081318184819581BE016F5F46
:100A70007F4F820F931F0E94FD17F801F582E482D9
:100A8000DBCFC8010F900F90DF91CF911F910F9195
:100A9000FF90EF900895AF92BF92CF92DF92EF92C6
:100AA000FF920F931F93CF93DF93EC016B015A01D9
:100AB00079012417350720F48B2D5901E42EF82EE7
:100AC0006AE171E0CE010E94FD04D60114960D91F9
:100AD0001C91A016B10628F5E016F10608F487016E
:100AE000D601ED91FC911197E00FF11FF08010827B
:100AF0006D917C916A0D7B1D61157105F1F0FB0113
:100B000001900020E9F73197AF01461B570BCE014A
:100B10000E94D204F60180819181080F191FD8012B
:100B2000FC92CE01DF91CF911F910F91FF90EF903A
:100B3000DF90CF90BF90AF90089588819981009702
:100B400011F00E949B16198218821D821C821B8242
:100B50001A82E0CF1F920F920FB60F9211242F939B
:100B60003F938F939F93AF93BF9380914601909152
:100B70004701A0914801B09149013091410120E421
:100B8000230F2D3728F023EC230F0196A11DB11D53
:100B9000209341018093460190934701A09348011F
:100BA000B09349018091420190914301A091440189
:100BB000B09145010196A11DB11D80934201909312
:100BC0004301A0934401B0934501BF91AF919F9120
:100BD0008F913F912F910F900FBE0F901F901895FE
:100BE0001F920F920FB60F9211242F933F934F93A2
:100BF0005F936F937F938F939F93AF93BF93EF9385
:100C0000FF938AE491E00E944103FF91EF91BF912D
:100C1000AF919F918F917F916F915F914F913F9194
:100C20002F910F900FBE0F901F9018951F920F924B
:100C30000FB60F9211242F938F939F93EF93FF93EF
:100C4000E0915A01F0915B018081E0916001F091A7
:100C5000610182FD1BC09081809163018F5F8F7362
:100C600020916401821741F0E0916301F0E0E65BBE
:100C7000FE4F958F80936301FF91EF919F918F912C
:100C80002F910F900FBE0F901F9018958081F4CF79
:100C9000CF93DF93CDB7DEB7C755D1090FB6F89420
:100CA000DEBF0FBECDBF8091F20080618EBB80E8B9
:100CB0008093F2009EB39093F2008093610091E0E4
:100CC000909361009091F2009F799EBB8093F20017
:100CD0009EB39093F2009091F2009B7F9EBB809315
:100CE000F2009EB39093F200809361001092610035
:100CF000789484B5826084BD84B5816084BD85B5F7
:100D0000826085BD85B5816085BD80916E00816002
:100D100080936E00109281008091810082608093A8
:100D200081008091810081608093810080918000AA
:100D30008160809380008091B10084608093B100D5
:100D40008091B00081608093B000809191008260BA
:100D500080939100809191008160809391008091B7
:100D6000900081608093900080917A0084608093ED
:100D70007A0080917A008D7F80937A0080917A004A
:100D80008E7F80937A0080917A00806880937A00C9
:100D90001092C100E0915A01F0915B0182E08083E2
:100DA000E0915601F09157011082E0915801F091C5
:100DB000590182E2808310926201E0915E01F0911C
:100DC0005F0186E08083E0915C01F0915D018081AC
:100DD00080618083E0915C01F0915D018081886099
:100DE0008083E0915C01F0915D0180818068808367
:100DF000E0915C01F0915D0180818F7D808361E0F5
:100E000087E00E94A00161E088E00E94A00161E00B
:100E100085E00E94A00161E080E10E94A00161E004
:100E20008FE00E94A00162E082E00E94A00162E0E7
:100E300083E00E94A00161E08AE00E94A00161E0DD
:100E400089E00E94A00161E08BE00E94A00161E0C6
:100E500081E10E94A00161E082E10E94A00161E0C5
:100E600083E10E94A00161E081E10E943F0161E015
:100E700082E10E943F0161E083E10E943F0160E066
:100E80008FE00E943F0189E691E00E94B00387E273
:100E900091E00E94B0038AE491E00E942103892B33
:100EA00009F452C0CE0149960E940E05CE01499622
:100EB0000E9415048D8D9E8D892B09F441C06BE134
:100EC00071E0CE0101960E94FD044D815E818D8D01
:100ED0009E8D8417950770F0898D9A8D009751F03B
:100EE00069817A816115710529F00E94041811E069
:100EF000892B09F010E0CE0101960E94F403111134
:100F00001FC06DE171E0CE0101960E94FD04BE019B
:100F10006F5F7F4FCE0149960E947204182FCE0159
:100F200001960E94F4031123E1F021E02093400197
:100F300061E08FE00E943F018BEB91E00E94B003E3
:100F4000CE0149960E94F403A0E0B0E0AB2B09F477
:100F5000A2CF0E942D03882309F49DCF0E94000098
:100F60009ACF63E271E0CE0107960E94FD04BE01B4
:100F7000695F7F4FCE0149960E94720411E0811192
:100F800015C06EE271E0CE0101960E94FD04BE0123
:100F90006F5F7F4FCE0149960E94720411E081116C
:100FA00001C010E0CE0101960E94F403CE01079625
:100FB0000E94F403112349F01092400160E08FE099
:100FC0000E943F0183EB91E0B9CF6AE271E0CE016C
:100FD00001960E94FD04BE016F5F7F4FCE014996CE
:100FE0000E947204082FCE0101960E94F403002390
:100FF00051F031E03093400161E08FE00E943F0109
:101000008BEA91E09BCF6CE2CE0149960E94FC03F3
:10101000698D7A8D019609F496C018861F821A860A
:1010200019861C861B866115710531F04D8D5E8D0C
:10103000CE0107960E94D2046CE2CE0107960E9470
:10104000FC036C017C015FEFE51AF50A8B859C853A
:10105000E816F90608F068C0AF80B8846CE270E06A
:10106000C5018E0D9F1D0E94F217009709F45CC008
:10107000AFEFCA16DA0609F457C08C010A191B092A
:101080000F3F100709F450C0960150E040E0BE0148
:10109000695F7F4FCE0101960E944B0589819A813D
:1010A000009709F448C00E94380F6B01CE010196E9
:1010B0000E94F4039801A701BE01695F7F4FCE0132
:1010C00001960E944B0589819A810097C1F10E9487
:1010D000380F7B01CE0101960E94F4032B853C85DD
:1010E000A8014F5F5F4FBE01695F7F4FCE01019640
:1010F0000E944B0589819A81812C912C5401009783
:1011000019F00E94380F4B01CE0101960E94F403A2
:10111000B6018AE00E94D801B70189E00E94D80197
:10112000B4018BE00E94D801CE0107960E94F4031F
:1011300084EA91E003CF60E070E0CB01B6CF60E0DD
:1011400070E0CB01C6CF1C8A1B8A1E8A1D8A188EAE
:101150001F8A6115710531F04D8D5E8DCE0143966C
:101160000E94D20460E2CE0143960E94FC037C01FF
:101170008F3F980709F4C9C19C0150E040E0BE01CF
:101180006D5E7F4FCE0101960E944B0589819A8149
:10119000009709F454C10E94340F26966CAF7DAFBE
:1011A0008EAF9FAF2697CE0101960E94F4032F8940
:1011B000388DA7014F5F5F4FBE016D5E7F4FCE013F
:1011C00001960E944B0589819A81009709F43EC1DE
:1011D0000E94340F22966CAF7DAF8EAF9FAF2297E7
:1011E000CE0101960E94F40320913C0130913D0113
:1011F00040913E0150913F0126966CAD7DAD8EAD84
:101200009FAD26970E946E122A966CAF7DAF8EAF6F
:101210009FAF2A97C0903801D0903901E0903A01F1
:10122000F0903B01A701960122966CAD7DAD8EAD8D
:101230009FAD22970E946E122E966CAF7DAF8EAF3F
:101240009FAF2E9722962CAD3DAD4EAD5FAD229750
:10125000C701B6010E946F1220E030E040E05FE37A
:101260000E944B112AE939E94AE453E40E944B11E8
:101270002A962CAD3DAD4EAD5FAD2A970E944B1125
:101280004B015C012AE939E94AE453E42E966CAD3E
:101290007DAD8EAD9FAD2E970E944B116B017C01F1
:1012A000A5019401C501B4010E944B114B015C01E1
:1012B000A7019601C701B6010E944B119B01AC0129
:1012C000C501B4010E946F120E949A150E944D132D
:1012D0000E94DB137DAF6CAF1616170624F081E079
:1012E00090E09DAF8CAF22242394312C2CAD3DADEA
:1012F000032E000C440B550B68962CAF3DAF4EAF40
:101300005FAF68978AE491E00E942103892B61F125
:10131000CE010D960E940E05CE010D960E94150479
:101320006DE171E0CE0101960E94FD04BE016F5F88
:101330007F4FCE010D960E947204182FCE010196A8
:101340000E94F403112309F488C031E03093400176
:1013500061E08FE00E943F018AE991E00E94B003C2
:10136000CE010D960E94F40310914001112309F45F
:10137000EEC00E9461024B015C017AE0C72ED12CC5
:10138000E12CF12C0E946102681979098A099B09F4
:10139000683E734081059105A8F351E0C51AD10854
:1013A000E108F10888EE880E83E0981EA11CB11CAC
:1013B000C114D104E104F10429F78AE491E00E9408
:1013C0002103892B89F2CE010D960E940E05CE01D4
:1013D0000D960E94150463E271E0CE0101960E9411
:1013E000FD04BE016F5F7F4FCE010D960E94720417
:1013F000811115C06EE271E0CE0107960E94FD04D6
:10140000BE01695F7F4FCE010D960E94720411E00C
:10141000811101C010E0CE0107960E94F403CE01B5
:1014200001960E94F403112309F479C0109240013F
:1014300060E08FE00E943F0182E891E08FCF269626
:101440001CAE1DAE1EAE1FAE2697ADCE22961CAEB4
:101450001DAE1EAE1FAE2297C3CE63E271E0CE0179
:1014600001960E94FD04BE016F5F7F4FCE010D9675
:101470000E94720411E0811115C06EE271E0CE018C
:1014800007960E94FD04BE01695F7F4FCE010D9655
:101490000E94720411E0811101C010E0CE01079694
:1014A0000E94F403CE0101960E94F403112349F037
:1014B0001092400160E08FE00E943F0182E991E0DC
:1014C0004DCF6AE271E0CE0101960E94FD04BE019B
:1014D0006F5F7F4FCE010D960E947204082FCE01E0
:1014E00001960E94F403002309F43ACF41E04093AF
:1014F000400161E08FE00E943F018AE891E00E9494
:10150000B003CE010D960E94F403CE0143960E94D3
:10151000F403112309F414CD81EA91E00FCD6AE2BE
:1015200071E0CE0101960E94FD04BE016F5F7F4F06
:10153000CE010D960E947204082FCE0101960E94E2
:10154000F403002309F40CCF8AE791E0D8CFB1016E
:10155000032C000C880B990B0E94EC106B017C0192
:1015600068966CAD7DAD8EAD9FAD68970E94EC1016
:101570009B01AC01C701B6010E9469136B017C019C
:10158000AC019B012A966CAD7DAD8EAD9FAD2A97C7
:101590000E944B1120913C0130913D0140913E0150
:1015A00050913F010E946F122B013C01A70196014F
:1015B0002E966CAD7DAD8EAD9FAD2E970E944B11DA
:1015C000209138013091390140913A0150913B010D
:1015D0000E946F126FA778AB89AB9AAB2AE939E901
:1015E0004AE453E40E944B116B017C01C301B20138
:1015F0000E9464139B01AC01C701B6010E944B110C
:101600004B015C01C301B2010E948C159B01AC012E
:10161000C701B6010E944B116B017C01AC019B011B
:10162000C501B4010E94EB142B013C01209134014F
:101630003091350140913601509137012F8F38A3F9
:1016400049A35AA3CA01B90190582BED35EA4EEFD0
:1016500053E40E9469136FA378A789A79AA72AE980
:1016600039E94AE453E4C301B2010E94D8141816C0
:101670000CF014C2A30192016AE979E98AE493E4C7
:101680000E9469132B013C01AC019B01C501B4010F
:101690000E944B114B015C01A3019201C701B601ED
:1016A0000E944B116B017C016AE9462E69E9562EB6
:1016B0006AE4662E63E4762EA3019201C301B201AF
:1016C0000E944B1123EC36E540E256E40E946E1274
:1016D00023EC36E540E256E40E946E1223EC36E538
:1016E00040EA56E40E9469132B013C0120E030E0FF
:1016F00040E85FE30E94D81418160CF427C320E0DA
:1017000030E040E85FEBC301B2010E94E51087FDC5
:1017100024C3C301B2010E945D126BA37CA38DA3FD
:101720009EA39B01AC0150582BAB3CAB4DAB5EABC9
:101730000E9464132AE939E94AEC52E40E944B11F1
:101740002AE939E94AEC52E40E946F126BA77CA7A0
:101750008DA79EA76BA17CA18DA19EA10E948C1537
:101760002B013C01A5019401C701B6010E94EE12B4
:101770004B015C012AE939E94AEC52E4C301B201A8
:101780000E944B112BA53CA54DA55EA50E94EE1213
:101790009B01AC01C501B4010E946E122B013C01FA
:1017A0002FA138A549A55AA50E946E122BED3FE046
:1017B00049EC50E40E9469136B017C0120E030E0A9
:1017C000A9010E94D81420E030E040E05FE387FDEB
:1017D000CBC2C701B6010E946F120E94DB13072E15
:1017E000000C880B990B0E94EC109B01AC010E942D
:1017F0006F122BED3FE049E450E40E944B119B0136
:10180000AC01C301B2010E946E126B017C016BA995
:101810007CA98DA99EA90E948C152AE939E94AEC78
:1018200052E40E944B112BA53CA54DA55EA50E943C
:10183000EE129B01AC01C501B4010E946E124B0176
:101840005C012FA138A549A55AA50E946E122BED67
:101850003FE049EC50E40E9469132B013C0120E079
:1018600030E0A9010E94D81420E030E040E05FE3BE
:1018700087FD7FC2C301B2010E946F120E94DB1379
:10188000072E000C880B990B0E94EC109B01AC01F9
:101890000E946F122BED3FE049E450E40E944B118F
:1018A0009B01AC01C501B4010E946E124B015C01A9
:1018B000C701B60190582BED35EA4EEF53E40E9474
:1018C0004B112F966FAF2F9760967FAF6097619601
:1018D0008FAF619762969FAF629720E030E040E95A
:1018E0005FE3C701B6010E944B112BA13CA14DA1A2
:1018F0005EA10E946F1290582BED35EA4EEF53E433
:101900000E944B11162F072F63968FAF6397649633
:101910009FAF6497C501B40190582BED35EA4EEFA7
:1019200053E40E944B116FA37BA78BAB9FAB20E0CE
:1019300030E040E95FE3C501B4010E944B112BA1E7
:101940003CA14DA15EA10E946E1290582BED35EA8C
:101950004EEF53E40E944B1168AF79AF8AAF9BAF53
:101960002F8D38A149A15AA12F966FAD2F97609660
:101970007FAD609761968FAD619762969FAD6297DC
:101980000E946E126B017C0120E030E0A9010E94F0
:10199000D814181624F0F7FAF094F7F8F094809021
:1019A000300190903101A0903201B0903301A50137
:1019B0009401612F702F63968FAD639764969FADEE
:1019C00064970E946E122B013C0120E030E0A901D7
:1019D0000E94D814181624F077FA709477F870944F
:1019E000A3019201C701B6010E946F122B013C01B5
:1019F0002F8D38A149A15AA16FA17BA58BA99FA9C1
:101A00000E946E126B017C0120E030E0A9010E946F
:101A1000D814181624F0F7FAF094F7F8F094A5010A
:101A2000940168AD79AD8AAD9BAD0E946E124B01F9
:101A30005C0120E030E0A9010E94D814181624F0BF
:101A4000B7FAB094B7F8B094A5019401C701B601F4
:101A50000E946F129B01AC01C301B2010E94E5100C
:101A600018160CF448C018AF09AF63963FAD6397E2
:101A70003AAF64964FAD64974BAF2F965FAD2F97FB
:101A80005FA360968FAD60978BA761969FAD6197BE
:101A90009BAB6296AFAD6297AFAB2DC020E030E05C
:101AA00040E85FE3C301B2010E94E51087FF04CE66
:101AB00020E030E040E95FE36FA178A589A59AA511
:101AC0000E944B112BED3FE049E450E40E946F125D
:101AD00090582BED35EA4EEF53E40E944B1168AF5E
:101AE00079AF8AAF9BAF3F8D3FA348A14BA759A1C8
:101AF0005BAB8AA18FAB2F8D38A149A15AA16FA1F1
:101B00007BA58BA99FA90E946E126B017C0120E02E
:101B100030E0A9010E94D81420E030E040E05FE30B
:101B200087FD2CC1C701B6010E946F120E94DB1312
:101B30002B013C0120913001309131014091320163
:101B40005091330168AD79AD8AAD9BAD0E946E12A4
:101B50004B015C0120E030E0A9010E94D81420E094
:101B600030E040E05FE387FD0EC1C501B4010E9493
:101B70006F120E94DB134B015C014114510461049C
:101B8000710431F481149104A104B10409F418C161
:101B900020E030E040E85FE36FA578A989A99AA921
:101BA0000E94D814181644F420E030E040E85FE3C7
:101BB0002FA738AB49AB5AAB20E030E44CE155E4F9
:101BC0006FA578A989A99AA90E944B1120E030E05D
:101BD0004AEF53E40E946F120E94DB138B01C50190
:101BE000B4016095709580959095662797FD6395F3
:101BF00077278827992780E10E943F01C301B2011E
:101C00006095709580959095662797FD63957727E9
:101C10008827992788E00E943F01B7FE08C0B0944A
:101C2000A09490948094811C911CA11CB11C77FEFF
:101C300008C07094609450944094411C511C611CE5
:101C4000711C8F8E98A2A9A2BAA284149504A6042E
:101C5000B70424F44F8E58A269A27AA2CF8CD8A0E0
:101C6000E9A0FAA0F594E794D794C794CBA2DCA29C
:101C7000EDA2FEA21FA618AA19AA1AAA8F8D98A1D2
:101C8000A9A1BAA12FA538A949A95AA982179307D2
:101C9000A407B50709F47CC0C818D908EA08FB08EE
:101CA000F7FE0CC061E085E00E943F018F8D98A196
:101CB000A9A1BAA1C80ED91EEA1EFB1E2BA13CA1E8
:101CC0004DA15EA124193509460957092BA33CA350
:101CD0004DA35EA357FF14C061E087E00E943F015F
:101CE0008BA19CA1ADA1BEA12F8D38A149A15AA164
:101CF000820F931FA41FB51F8BA39CA3ADA3BEA3EC
:101D000035E13A95F1F7000060E085E00E943F017F
:101D100060E087E00E943F01C801880F991F880F8B
:101D2000991F019700F400F000F400F0000000009B
:101D30000197D1F78FA598A9A9A9BAA90196A11DC4
:101D4000B11D8FA798ABA9ABBAAB98CF412C512C42
:101D500050E8652E5FE3752EDCCC412C512C40E819
:101D6000642E4FEB742ED5CCC701B6010E946E12C3
:101D700034CDC301B2010E946E1280CDC701B601FD
:101D80000E946E12D3CEC501B4010E946E12F1CE34
:101D90008FA19BA5ABA9BFA9809334019093350176
:101DA000A0933601B093370188AD99ADAAADBBAD14
:101DB0008093300190933101A0933201B0933301AD
:101DC0009FEF291A390AACADBDADA215B3050CF0D1
:101DD00099CA26962CAD3DAD4EAD5FAD26972093AA
:101DE0003C0130933D0140933E0150933F012296C8
:101DF0008CAD9DADAEADBFAD229780933801909371
:101E00003901A0933A01B0933B0111E07ECBEAE4A3
:101E1000F1E01382128288EE93E0A0E0B0E08483C8
:101E20009583A683B7838AE091E09183808385ECD4
:101E300090E09587848784EC90E09787868780EC94
:101E400090E0918B808B81EC90E0938B828B82EC85
:101E500090E0958B848B86EC90E0978B868B118E2F
:101E6000128E138E148E0895662777270C94740FA4
:101E70001F93FC0199278827BC01E8941191103227
:101E8000E9F3193010F01E30C8F31B3251F01D3247
:101E900049F4689406C00E945F0F610F711D811D97
:101EA000911D119110531A30B0F33EF49095809526
:101EB000709561957F4F8F4F9F4F1F910895592FB8
:101EC000482F372F262F660F771F881F991F660F01
:101ED000771F881F991F620F731F841F951F660F3E
:101EE000771F881F991F0895B0E0A0E0EAE7FFE0A0
:101EF0000C941D125C017B016115710519F0DB0169
:101F00008D939C9385010F5F1F4FF501D0818D2F1D
:101F100090E00E94C4106C01892BB9F5DD32B9F54F
:101F20000F5F1F4FD5011196DC91C1E05801F1E020
:101F3000AF1AB10843E050E064EF70E0C5010E94C1
:101F4000CD10892B69F5680182E0C80ED11C45E0EF
:101F500050E06FEE70E0C6010E94CD10892B21F495
:101F6000680197E0C90ED11CE114F10419F0D70102
:101F7000CD92DC9260E070E080E89FEFC111FFC07D
:101F800060E070E080E89FE7FAC05801BBCFDB3229
:101F900029F485010E5F1F4FF501D181C0E0C6CF46
:101FA00043E050E06CEE70E0C5010E94CD10892B3B
:101FB000E9F0F80110E000E020E030E0A9015F0165
:101FC000B0ED8B2E8D0E89E08815C8F19C2E68949B
:101FD00091F88C2F8870C2FF16C0811102C00F5F6C
:101FE0001F4F3196D501DC91C92DE9CFE114F104E1
:101FF00029F00E5F1F4FF7011183008360E070E04E
:1020000080EC9FE7BCC0882311F001501109A5E0C6
:10201000B0E00E940C129B01AC01220F331F441F41
:10202000551F280D311D411D511D283999E93907CA
:10203000490799E15907A8F2C6609C2ED2CFAEEFAE
:102040008A1206C0C3FD3CC09C2E689493F8C9CF89
:10205000DF7DD534A9F580818D3239F4C061DF018F
:102060001296818162E070E006C0DF018B32C1F31D
:10207000119661E070E080535D01A61AB70A8A30BC
:10208000F8F4E0E8CE16ECE0DE065CF4B601660F8C
:10209000771F660F771FC60ED71ECC0CDD1CC80E2F
:1020A000D11C5D01FFEFAF1ABF0A8C9180538A30BB
:1020B000A8F1C4FF03C0D194C194D1080C0D1D1D1B
:1020C000C1FF09C0E114F10431F081E0A81AB108A0
:1020D000D701AD92BC92CA01B9010E94EA10C37047
:1020E000C33009F490584B015C0120E030E0A901B5
:1020F0000E94E510882309F440C0C3E2D1E017FF35
:1021000005C0119501951109CBE0D1E06E01B8E150
:10211000CB1AD10880E2E82EF12C0FC0D501B1CF47
:10212000FE0125913591459154910E191F09C50164
:10213000B4010E944B114B015C01D501C4010E1585
:102140001F0574F72497F594E794CC16DD06A9F7DC
:102150008A2F880F8B2F881F8F3F49F020E030E0B7
:10216000A901C501B4010E94E510811106C082E2F7
:1021700090E09093E8018093E701C501B401CDB7E9
:10218000DEB7ECE00C94391291110C94B811803246
:1021900019F089508550C8F70895FB01DC014150C2
:1021A000504088F08D9181341CF08B350CF4805EAA
:1021B000659161341CF06B350CF4605E861B611117
:1021C00071F3990B0895881BFCCF0E94271108F426
:1021D00081E00895E89409C097FB3EF490958095BE
:1021E000709561957F4F8F4F9F4F9923A9F0F92FDD
:1021F00096E9BB279395F695879577956795B7955B
:10220000F111F8CFFAF4BB0F11F460FF1BC06F5F40
:102210007F4F8F4F9F4F16C0882311F096E911C052
:10222000772321F09EE8872F762F05C0662371F073
:1022300096E8862F70E060E02AF09A95660F771F87
:10224000881FDAF7880F9695879597F90895990F63
:102250000008550FAA0BE0E8FEEF16161706E80770
:10226000F907C0F012161306E407F50798F0621B91
:10227000730B840B950B39F40A2661F0232B242B66
:10228000252B21F408950A2609F4A140A6958FEF85
:10229000811D811D08950E945E110C94D2110E942F
:1022A000C41138F00E94CB1120F0952311F00C944A
:1022B000BB110C94C11111240C9406120E94E3115D
:1022C00070F3959FC1F3950F50E0551F629FF00189
:1022D000729FBB27F00DB11D639FAA27F00DB11DA2
:1022E000AA1F649F6627B00DA11D661F829F22272B
:1022F000B00DA11D621F739FB00DA11D621F839FB2
:10230000A00D611D221F749F3327A00D611D231F87
:10231000849F600D211D822F762F6A2F11249F57D5
:1023200050409AF0F1F088234AF0EE0FFF1FBB1FD8
:10233000661F771F881F91505040A9F79E3F510597
:1023400080F00C94BB110C9406125F3FE4F3983EAE
:10235000D4F3869577956795B795F795E7959F5F41
:10236000C1F7FE2B880F911D9695879597F90895D3
:1023700099278827089597F99F6780E870E060E0C3
:1023800008959FEF80EC089500240A94161617060E
:1023900018060906089500240A9412161306140656
:1023A00005060895092E0394000C11F4882352F0B9
:1023B000BB0F40F4BF2B11F460FF04C06F5F7F4F71
:1023C0008F4F9F4F089557FD9058440F551F59F058
:1023D0005F3F71F04795880F97FB991F61F09F3F12
:1023E00079F087950895121613061406551FF2CF3B
:1023F0004695F1DF08C0161617061806991FF1CF8B
:1024000086957105610508940895E894BB276627B1
:102410007727CB0197F908950E944E12A59F900D42
:10242000B49F900DA49F800D911D112408952F92AB
:102430003F924F925F926F927F928F929F92AF9254
:10244000BF92CF92DF92EF92FF920F931F93CF93A1
:10245000DF93CDB7DEB7CA1BDB0B0FB6F894DEBF38
:102460000FBECDBF09942A88398848885F846E845E
:102470007D848C849B84AA84B984C884DF80EE80A8
:10248000FD800C811B81AA81B981CE0FD11D0FB6B1
:10249000F894DEBF0FBECDBFED010895A29FB0013D
:1024A000B39FC001A39F700D811D1124911DB29F88
:1024B000700D811D1124911D08959F939F770E9497
:1024C00011140F90002042F49058A2EA2AED3FE048
:1024D00049E450E40E9486120C94D2115058BB2754
:1024E000AA270E9486120C94D2110E94C41138F0BF
:1024F0000E94CB1120F039F49F3F19F426F40C947C
:10250000C1110EF4E095E7FB0C94BB11E92F0E947A
:10251000E31158F3BA17620773078407950720F091
:1025200079F4A6F50C9405120EF4E0950B2EBA2F53
:10253000A02D0B01B90190010C01CA01A0011124C9
:10254000FF27591B99F0593F50F4503E68F11A1675
:10255000F040A22F232F342F4427585FF3CF469506
:1025600037952795A795F0405395C9F77EF41F1628
:10257000BA0B620B730B840BBAF09150A1F0FF0FF2
:10258000BB1F661F771F881FC2F70EC0BA0F621FDE
:10259000731F841F48F4879577956795B795F795CE
:1025A0009E3F08F0B0CF9395880F08F09927EE0F63
:1025B0009795879508950E94C41160F080E891E096
:1025C00009F49EEF0E94CB1128F040E851E071F42D
:1025D0005EEF0CC00C94C1110C940512E92FE07849
:1025E0000E94E31140F3092E052AB1F3261737079D
:1025F0004807590738F00E2E07F8E02569F0E02566
:10260000E0640AC0EF6307F8009407FADB01B90140
:102610009D01DC01CA01AD01EF930E9480130E946D
:10262000D2110E941E135F91552339F02BED3FE02C
:1026300049E450FD49EC0C946F120895DF93DD27B7
:10264000B92FBF7740E85FE31616170648075B0708
:1026500018F4D92F0E944A159F938F937F936F93FD
:102660000E94DA15E8E7F0E00E945A140E94D211A5
:102670002F913F914F915F910E945E11DD2351F0A8
:102680009058A2EA2AED3FE049EC5FE3D0785D275D
:102690000E948612DF910C94D2110E94C01490F017
:1026A0009F3748F4911116F40C94061260E070E024
:1026B00080E89FE3089526F01B16611D711D811DA2
:1026C0000C9431140C944C140E948314E3950C94D4
:1026D000AC140E947D130C94D2110E94CB1158F0BF
:1026E0000E94C41140F029F45F3F29F00C94BB1103
:1026F00051110C9406120C94C1110E94E31168F35D
:102700009923B1F3552391F3951B550BBB27AA27AA
:1027100062177307840738F09F5F5F4F220F331FE4
:10272000441FAA1FA9F335D00E2E3AF0E0E832D0AC
:1027300091505040E695001CCAF72BD0FE2F29D0AF
:10274000660F771F881FBB1F261737074807AB0781
:10275000B0E809F0BB0B802DBF01FF2793585F4FF6
:102760003AF09E3F510578F00C94BB110C94061280
:102770005F3FE4F3983ED4F3869577956795B795D8
:10278000F7959F5FC9F7880F911D9695879597F9E3
:102790000895E1E0660F771F881FBB1F621773075C
:1027A0008407BA0720F0621B730B840BBA0BEE1F71
:1027B00088F7E09508950E94E2136894B1110C9493
:1027C000061208950E94EB1188F09F5798F0B92FD8
:1027D0009927B751B0F0E1F0660F771F881F991F56
:1027E0001AF0BA95C9F714C0B13091F00E940512E1
:1027F000B1E008950C940512672F782F8827B85FF1
:1028000039F0B93FCCF3869577956795B395D9F7AD
:102810003EF490958095709561957F4F8F4F9F4FB7
:102820000895DF93CF931F930F938B01EC01E5EA9B
:10283000F0E00E945A140E94D2119801AE018B015F
:10284000EC0160E070E080E89FE30E946E120E945D
:102850009A159801AE010F911F91CF91DF910C94C1
:102860005E11882371F4772321F09850872B762FFF
:1028700007C0662311F499270DC09051862B70E094
:1028800060E02AF09A95660F771F881FDAF7880FA5
:102890009695879597F908959F3F31F0915020F4D0
:1028A000879577956795B795880F911D969587952C
:1028B00097F90895DF93CF931F930F93FF92EF92B1
:1028C000DF927B018C01689406C0DA2EEF010E9432
:1028D0005E11FE01E894A5912591359145915591A0
:1028E000A6F3EF010E948612FE019701A801DA9477
:1028F00069F7DF90EF90FF900F911F91CF91DF91DB
:1029000008950C94C1110E94EB11D8F3E894E0E013
:10291000BB279F57F0F02AED3FE049EC06C0EE0FD1
:10292000BB0F661F771F881F28F0B23A6207730734
:10293000840728F0B25A620B730B840BE3959A95C7
:1029400072F7803830F49A95BB0F661F771F881F87
:10295000D2F790480C944E14EF93E0FF07C0A2EA20
:102960002AED3FE049EC5FEB0E9486120E94D211F3
:102970000F90039401FC9058EDECF0E00C94E515F9
:102980000E94EB11A0F0BEE7B91788F4BB279F386F
:1029900060F41616B11D672F782F8827985FF7CF40
:1029A000869577956795B11D93959639C8F30895E7
:1029B0000E94271108F48FEF08950E94C41129F096
:1029C0000E94CB1111F00C94C1110C94BB11B901F0
:1029D000CA010C944C149F775F770E94E31168F34F
:1029E0009923A9F35523A9F3FF27951758F4E52F49
:1029F000E91BED3060F75E3B10F0F1E41CC0903451
:102A0000E0F40AC0E92FE51BED3018F79E3B10F00B
:102A1000F1E411C0503488F4F9EA88232AF09A9539
:102A2000660F771F881FDAF744232AF05A95220F82
:102A3000331F441FDAF79F1B5F1BFF931F930F93F6
:102A4000FF92EF9279018A01BB27AB2F9B01AC016A
:102A50000E9461119701A801BF937B018C01AA27F5
:102A6000BA2FB901CA010E946111AF919701A80163
:102A7000EF90FF900F911F910E9486120E94D21139
:102A80000E949A154F9140FF0895552747FD509594
:102A90000C9456159B01AC0160E070E080E89FE368
:102AA0000C9469130C94BB110C944C140E94EB1100
:102AB000D8F39923C9F3940F511DA3F391505040BB
:102AC00094F059F0882332F0660F771F881F9150D9
:102AD0005040C1F79E3F51052CF7880F911D9695E8
:102AE000879597F908955F3FACF0983E9CF0BB271F
:102AF000869577956795B79508F4B1609395C1F77A
:102B0000BB0F58F711F460FFE8CF6F5F7F4F8F4F17
:102B10009F4FE3CF0C9406129F930E9483140F9053
:102B200007FCEE5F0C94AC1419F416F40C94C1116C
:102B30000C944C140E94EB11B8F39923C9F3B6F32B
:102B40009F57550B87FF0E94DE150024A0E640EA40
:102B5000900180585695979528F4805C660F771FF2
:102B6000881F20F026173707480730F4621B730BC5
:102B7000840B202931294A2BA695179407942025E8
:102B800031254A2758F7660F771F881F20F0261730
:102B90003707480730F4620B730B840B200D311D8F
:102BA000411DA09581F7B901842F9158880F969502
:102BB000879508959B01AC010C944B1191505040A6
:102BC000660F771F881FD2F708959F938F937F9387
:102BD0006F93FF93EF939B01AC010E944B11EF9118
:102BE000FF910E945A142F913F914F915F910C9445
:102BF0004B11EE0FFF1F0590F491E02D09940F93F8
:102C00001F93CF93DF938230910510F482E090E020
:102C1000E091EB01F091EC0130E020E0B0E0A0E0C9
:102C2000309799F42115310509F44AC0281B390B56
:102C300024303105D8F58A819B816115710589F1B0
:102C4000FB0193838283FE0111C040815181028187
:102C5000138148175907E0F04817590799F410975E
:102C600061F012960C93129713961C933296CF0133
:102C7000DF91CF911F910F9108950093EB01109375
:102C8000EC01F4CF2115310551F04217530738F00C
:102C9000A901DB019A01BD01DF01F801C1CFEF01FC
:102CA000F9CF9093EC018093EB01CDCFFE01E20FC1
:102CB000F31F819391932250310939832883D7CF11
:102CC0002091E9013091EA01232B41F42091020186
:102CD000309103013093EA012093E9012091000132
:102CE000309101012115310541F42DB73EB74091D6
:102CF000040150910501241B350BE091E901F0918D
:102D0000EA01E217F307A0F42E1B3F0B281739073F
:102D100078F0AC014E5F5F4F2417350748F04E0F37
:102D20005F1F5093EA014093E901819391939FCFF4
:102D3000F0E0E0E09CCFCF93DF930097E9F0FC0157
:102D4000329713821282A091EB01B091EC01ED0158
:102D500030E020E01097A1F420813181820F931F91
:102D60002091E9013091EA012817390709F061C083
:102D7000F093EA01E093E901DF91CF910895EA0130
:102D8000CE17DF07E8F54A815B819E0141155105A9
:102D9000B1F7E901FB83EA8349915991C40FD51F2B
:102DA000EC17FD0761F4808191810296840F951FD5
:102DB000E90199838883828193819B838A83F0E0F0
:102DC000E0E012968D919C9113970097B9F52D91A3
:102DD0003C911197CD010296820F931F2091E9013A
:102DE0003091EA012817390739F6309751F51092DA
:102DF000EC011092EB01B093EA01A093E901BCCF82
:102E0000D383C28340815181840F951FC817D9078E
:102E100061F44E5F5F4F88819981480F591F51833C
:102E200040838A819B81938382832115310509F038
:102E3000B0CFF093EC01E093EB019ECFFD01DC01FC
:102E4000C0CF13821282D7CFB0E0A0E0EAE2F7E170
:102E50000C9419128C01009751F4CB010E94FF15BC
:102E60008C01C801CDB7DEB7E0E10C943512FC014E
:102E7000E60FF71F9C0122503109E217F30708F40F
:102E80009DC0D901CD91DC911197C617D70798F055
:102E9000C530D10530F3CE0104978617970708F3A4
:102EA000C61BD70B2297C193D1936D937C93CF010F
:102EB0000E949B16D6CF5B01AC1ABD0A4C018C0E4A
:102EC0009D1EA091EB01B091EC01512C412CF12CF5
:102ED000E12C109731F58091E9019091EA01881574
:102EE000990509F05CC04616570608F058C0809155
:102EF000000190910101009741F48DB79EB7409178
:102F0000040150910501841B950BE817F90708F09F
:102F100055C0F093EA01E093E901F9017183608300
:102F2000A0CF8D919C91119712966C901297139649
:102F30007C901397A815B90559F56C0142E0C40EB1
:102F4000D11CCA14DB0420F1AC014A195B09DA0177
:102F50001296159780F06282738251834083D90163
:102F60006D937C93E114F10471F0D7011396FC93F7
:102F7000EE93129776CF22968C0F9D1FF9019183C5
:102F80008083F301EFCFF093EC01E093EB0169CF85
:102F90004816590608F42C017D01D3019ACFCB01C4
:102FA0000E94FF157C01009749F0AE01B8010E9414
:102FB000E917C8010E949B16870153CF10E000E07B
:102FC00050CF9111089581548A5108F4805E855A3A
:102FD0000895FB01DC0102C001900D924150504068
:102FE000D8F70895FC018191861721F08823D9F73D
:102FF000992708953197CF010895FB01DC010190D5
:103000000D920020E1F70895FB01DC014150504092
:1030100030F08D910190801919F40020B9F7881BC8
:08302000990B0895F894FFCF0D
:103028000000ED0180000000000063038302B0028D
:10303800D4032103BF0213030D0A00230050415596
:10304800534500524553554D4500434C45415200A8
:00000001FF
